{
  "address": "0x5BbbcF54346174d57d0e39Ca124d9462A5dD63f1",
  "abi": [
    {
      "inputs": [],
      "stateMutability": "nonpayable",
      "type": "constructor"
    },
    {
      "inputs": [
        {
          "internalType": "string",
          "name": "_name",
          "type": "string"
        },
        {
          "internalType": "uint256",
          "name": "_price",
          "type": "uint256"
        }
      ],
      "name": "addRoomService",
      "outputs": [],
      "stateMutability": "nonpayable",
      "type": "function"
    },
    {
      "inputs": [],
      "name": "balance",
      "outputs": [
        {
          "internalType": "uint256",
          "name": "",
          "type": "uint256"
        }
      ],
      "stateMutability": "view",
      "type": "function"
    },
    {
      "inputs": [
        {
          "internalType": "uint8",
          "name": "_roomNumber",
          "type": "uint8"
        },
        {
          "internalType": "uint8",
          "name": "_serviceNumber",
          "type": "uint8"
        }
      ],
      "name": "buyRoomService",
      "outputs": [],
      "stateMutability": "payable",
      "type": "function"
    },
    {
      "inputs": [
        {
          "internalType": "uint8",
          "name": "_roomNumber",
          "type": "uint8"
        },
        {
          "internalType": "uint8",
          "name": "_timeToStay",
          "type": "uint8"
        }
      ],
      "name": "checkIn",
      "outputs": [],
      "stateMutability": "payable",
      "type": "function"
    },
    {
      "inputs": [
        {
          "internalType": "uint8",
          "name": "_roomNumber",
          "type": "uint8"
        }
      ],
      "name": "checkOut",
      "outputs": [],
      "stateMutability": "nonpayable",
      "type": "function"
    },
    {
      "inputs": [],
      "name": "defaultRoomPriceInWei",
      "outputs": [
        {
          "internalType": "uint256",
          "name": "",
          "type": "uint256"
        }
      ],
      "stateMutability": "view",
      "type": "function"
    },
    {
      "inputs": [
        {
          "internalType": "uint8",
          "name": "_roomNumber",
          "type": "uint8"
        }
      ],
      "name": "getRoomTab",
      "outputs": [
        {
          "components": [
            {
              "internalType": "string",
              "name": "name",
              "type": "string"
            },
            {
              "internalType": "uint256",
              "name": "price",
              "type": "uint256"
            },
            {
              "internalType": "bool",
              "name": "enabled",
              "type": "bool"
            }
          ],
          "internalType": "struct DappInn.RoomService[]",
          "name": "",
          "type": "tuple[]"
        }
      ],
      "stateMutability": "view",
      "type": "function"
    },
    {
      "inputs": [],
      "name": "getTimeStamp",
      "outputs": [
        {
          "internalType": "uint256",
          "name": "",
          "type": "uint256"
        }
      ],
      "stateMutability": "view",
      "type": "function"
    },
    {
      "inputs": [],
      "name": "numberOfRooms",
      "outputs": [
        {
          "internalType": "uint8",
          "name": "",
          "type": "uint8"
        }
      ],
      "stateMutability": "view",
      "type": "function"
    },
    {
      "inputs": [],
      "name": "numberOfServices",
      "outputs": [
        {
          "internalType": "uint8",
          "name": "",
          "type": "uint8"
        }
      ],
      "stateMutability": "view",
      "type": "function"
    },
    {
      "inputs": [],
      "name": "owner",
      "outputs": [
        {
          "internalType": "address",
          "name": "",
          "type": "address"
        }
      ],
      "stateMutability": "view",
      "type": "function"
    },
    {
      "inputs": [
        {
          "internalType": "uint8",
          "name": "",
          "type": "uint8"
        }
      ],
      "name": "roomService",
      "outputs": [
        {
          "internalType": "string",
          "name": "name",
          "type": "string"
        },
        {
          "internalType": "uint256",
          "name": "price",
          "type": "uint256"
        },
        {
          "internalType": "bool",
          "name": "enabled",
          "type": "bool"
        }
      ],
      "stateMutability": "view",
      "type": "function"
    },
    {
      "inputs": [
        {
          "internalType": "uint8",
          "name": "",
          "type": "uint8"
        }
      ],
      "name": "rooms",
      "outputs": [
        {
          "internalType": "enum DappInn.RoomStatus",
          "name": "status",
          "type": "uint8"
        },
        {
          "internalType": "address",
          "name": "guest",
          "type": "address"
        },
        {
          "internalType": "uint256",
          "name": "checkoutDate",
          "type": "uint256"
        },
        {
          "internalType": "uint256",
          "name": "price",
          "type": "uint256"
        }
      ],
      "stateMutability": "view",
      "type": "function"
    },
    {
      "inputs": [
        {
          "internalType": "uint256",
          "name": "_price",
          "type": "uint256"
        }
      ],
      "name": "setDefaultRoomPrice",
      "outputs": [],
      "stateMutability": "nonpayable",
      "type": "function"
    },
    {
      "inputs": [
        {
          "internalType": "uint8",
          "name": "_numberOfRooms",
          "type": "uint8"
        }
      ],
      "name": "setNumberOfRooms",
      "outputs": [],
      "stateMutability": "nonpayable",
      "type": "function"
    },
    {
      "inputs": [
        {
          "internalType": "uint8",
          "name": "_roomNumber",
          "type": "uint8"
        },
        {
          "internalType": "uint256",
          "name": "_price",
          "type": "uint256"
        }
      ],
      "name": "setRoomPrice",
      "outputs": [],
      "stateMutability": "nonpayable",
      "type": "function"
    },
    {
      "inputs": [
        {
          "internalType": "uint8",
          "name": "_serviceNumber",
          "type": "uint8"
        },
        {
          "internalType": "string",
          "name": "_name",
          "type": "string"
        },
        {
          "internalType": "uint256",
          "name": "_price",
          "type": "uint256"
        },
        {
          "internalType": "bool",
          "name": "_enabled",
          "type": "bool"
        }
      ],
      "name": "updateRoomService",
      "outputs": [],
      "stateMutability": "nonpayable",
      "type": "function"
    },
    {
      "inputs": [],
      "name": "withdrawAll",
      "outputs": [],
      "stateMutability": "nonpayable",
      "type": "function"
    }
  ],
  "transactionHash": "0xbb5ea372678288529f96163c28e56236b7274ce9a3e3df439a613262dc481e87",
  "args": [],
  "solcInputHash": "7ef039c998c8bcda7fd45f93eccbe406",
  "bytecode": "0x6080604052600a6000806101000a81548160ff021916908360ff160217905550606460015534801561003057600080fd5b5033600260006101000a81548173ffffffffffffffffffffffffffffffffffffffff021916908373ffffffffffffffffffffffffffffffffffffffff16021790555061295f806100816000396000f3fe6080604052600436106101095760003560e01c8063a7505bb911610095578063b8a5adea11610064578063b8a5adea1461033b578063d3c0a6a214610378578063da235b2214610394578063f2a02c1f146103bf578063f4486c21146103e857610109565b8063a7505bb914610291578063b2231103146102bc578063b69ef8a8146102e5578063b71bb6411461031057610109565b80637b521269116100dc5780637b521269146101df578063853828b614610208578063856ab4aa1461021f5780638da5cb5b1461023b57806399d568b31461026657610109565b8063037c3ff91461010e5780630fb15cc614610137578063113d88751461017757806365a50ab3146101a0575b600080fd5b34801561011a57600080fd5b5061013560048036038101906101309190611bca565b610411565b005b34801561014357600080fd5b5061015e60048036038101906101599190611c47565b610591565b60405161016e94939291906122e0565b60405180910390f35b34801561018357600080fd5b5061019e60048036038101906101999190611c47565b6105ee565b005b3480156101ac57600080fd5b506101c760048036038101906101c29190611c47565b61069b565b6040516101d693929190612325565b60405180910390f35b3480156101eb57600080fd5b5061020660048036038101906102019190611c47565b61075a565b005b34801561021457600080fd5b5061021d6109ca565b005b61023960048036038101906102349190611d27565b610ae6565b005b34801561024757600080fd5b50610250610dcf565b60405161025d91906122a3565b60405180910390f35b34801561027257600080fd5b5061027b610df5565b604051610288919061251e565b60405180910390f35b34801561029d57600080fd5b506102a6610e06565b6040516102b39190612503565b60405180910390f35b3480156102c857600080fd5b506102e360048036038101906102de9190611c1e565b610e0c565b005b3480156102f157600080fd5b506102fa610ee9565b6040516103079190612503565b60405180910390f35b34801561031c57600080fd5b50610325610f81565b604051610332919061251e565b60405180910390f35b34801561034757600080fd5b50610362600480360381019061035d9190611c47565b610f94565b60405161036f91906122be565b60405180910390f35b610392600480360381019061038d9190611d27565b611170565b005b3480156103a057600080fd5b506103a96115a1565b6040516103b69190612503565b60405180910390f35b3480156103cb57600080fd5b506103e660048036038101906103e19190611ceb565b6115a9565b005b3480156103f457600080fd5b5061040f600480360381019061040a9190611c70565b6117b6565b005b600260009054906101000a900473ffffffffffffffffffffffffffffffffffffffff1673ffffffffffffffffffffffffffffffffffffffff163373ffffffffffffffffffffffffffffffffffffffff16146104a1576040517f08c379a000000000000000000000000000000000000000000000000000000000815260040161049890612483565b60405180910390fd5b8160056000600460009054906101000a900460ff1660ff1660ff16815260200190815260200160002060000190805190602001906104e0929190611929565b508060056000600460009054906101000a900460ff1660ff1660ff16815260200190815260200160002060010181905550600160056000600460009054906101000a900460ff1660ff1660ff16815260200190815260200160002060020160006101000a81548160ff0219169083151502179055506004600081819054906101000a900460ff1680929190610574906127d9565b91906101000a81548160ff021916908360ff160217905550505050565b60036020528060005260406000206000915090508060000160009054906101000a900460ff16908060000160019054906101000a900473ffffffffffffffffffffffffffffffffffffffff16908060010154908060020154905084565b600260009054906101000a900473ffffffffffffffffffffffffffffffffffffffff1673ffffffffffffffffffffffffffffffffffffffff163373ffffffffffffffffffffffffffffffffffffffff161461067e576040517f08c379a000000000000000000000000000000000000000000000000000000000815260040161067590612483565b60405180910390fd5b806000806101000a81548160ff021916908360ff16021790555050565b60056020528060005260406000206000915090508060000180546106be906127a7565b80601f01602080910402602001604051908101604052809291908181526020018280546106ea906127a7565b80156107375780601f1061070c57610100808354040283529160200191610737565b820191906000526020600020905b81548152906001019060200180831161071a57829003601f168201915b5050505050908060010154908060020160009054906101000a900460ff16905083565b3373ffffffffffffffffffffffffffffffffffffffff16600360008360ff1660ff16815260200190815260200160002060000160019054906101000a900473ffffffffffffffffffffffffffffffffffffffff1673ffffffffffffffffffffffffffffffffffffffff1614610804576040517f08c379a00000000000000000000000000000000000000000000000000000000081526004016107fb90612383565b60405180910390fd5b60018081111561083d577f4e487b7100000000000000000000000000000000000000000000000000000000600052602160045260246000fd5b600360008360ff1660ff16815260200190815260200160002060000160009054906101000a900460ff16600181111561089f577f4e487b7100000000000000000000000000000000000000000000000000000000600052602160045260246000fd5b146108df576040517f08c379a00000000000000000000000000000000000000000000000000000000081526004016108d690612463565b60405180910390fd5b6000600360008360ff1660ff16815260200190815260200160002060000160006101000a81548160ff02191690836001811115610945577f4e487b7100000000000000000000000000000000000000000000000000000000600052602160045260246000fd5b02179055506000600360008360ff1660ff16815260200190815260200160002060000160016101000a81548173ffffffffffffffffffffffffffffffffffffffff021916908373ffffffffffffffffffffffffffffffffffffffff16021790555042600360008360ff1660ff1681526020019081526020016000206001018190555050565b600260009054906101000a900473ffffffffffffffffffffffffffffffffffffffff1673ffffffffffffffffffffffffffffffffffffffff163373ffffffffffffffffffffffffffffffffffffffff1614610a5a576040517f08c379a0000000000000000000000000000000000000000000000000000000008152600401610a5190612483565b60405180910390fd5b60004711610a9d576040517f08c379a0000000000000000000000000000000000000000000000000000000008152600401610a94906124c3565b60405180910390fd5b3373ffffffffffffffffffffffffffffffffffffffff166108fc479081150290604051600060405180830381858888f19350505050158015610ae3573d6000803e3d6000fd5b50565b3373ffffffffffffffffffffffffffffffffffffffff16600360008460ff1660ff16815260200190815260200160002060000160019054906101000a900473ffffffffffffffffffffffffffffffffffffffff1673ffffffffffffffffffffffffffffffffffffffff1614610b90576040517f08c379a0000000000000000000000000000000000000000000000000000000008152600401610b8790612383565b60405180910390fd5b42600360008460ff1660ff1681526020019081526020016000206001015411610bee576040517f08c379a0000000000000000000000000000000000000000000000000000000008152600401610be590612403565b60405180910390fd5b600460009054906101000a900460ff1660ff168160ff1610610c45576040517f08c379a0000000000000000000000000000000000000000000000000000000008152600401610c3c906124e3565b60405180910390fd5b60011515600560008360ff1660ff16815260200190815260200160002060020160009054906101000a900460ff16151514610cb5576040517f08c379a0000000000000000000000000000000000000000000000000000000008152600401610cac906124a3565b60405180910390fd5b600560008260ff1660ff16815260200190815260200160002060010154341015610d14576040517f08c379a0000000000000000000000000000000000000000000000000000000008152600401610d0b90612363565b60405180910390fd5b600360008360ff1660ff168152602001908152602001600020600301600560008360ff1660ff16815260200190815260200160002090806001815401808255809150506001900390600052602060002090600302016000909190919091506000820181600001908054610d86906127a7565b610d919291906119af565b50600182015481600101556002820160009054906101000a900460ff168160020160006101000a81548160ff02191690831515021790555050505050565b600260009054906101000a900473ffffffffffffffffffffffffffffffffffffffff1681565b60008054906101000a900460ff1681565b60015481565b600260009054906101000a900473ffffffffffffffffffffffffffffffffffffffff1673ffffffffffffffffffffffffffffffffffffffff163373ffffffffffffffffffffffffffffffffffffffff1614610e9c576040517f08c379a0000000000000000000000000000000000000000000000000000000008152600401610e9390612483565b60405180910390fd5b60008111610edf576040517f08c379a0000000000000000000000000000000000000000000000000000000008152600401610ed6906123c3565b60405180910390fd5b8060018190555050565b6000600260009054906101000a900473ffffffffffffffffffffffffffffffffffffffff1673ffffffffffffffffffffffffffffffffffffffff163373ffffffffffffffffffffffffffffffffffffffff1614610f7b576040517f08c379a0000000000000000000000000000000000000000000000000000000008152600401610f7290612483565b60405180910390fd5b47905090565b600460009054906101000a900460ff1681565b60603373ffffffffffffffffffffffffffffffffffffffff16600360008460ff1660ff16815260200190815260200160002060000160019054906101000a900473ffffffffffffffffffffffffffffffffffffffff1673ffffffffffffffffffffffffffffffffffffffff1614611040576040517f08c379a000000000000000000000000000000000000000000000000000000000815260040161103790612383565b60405180910390fd5b600360008360ff1660ff168152602001908152602001600020600301805480602002602001604051908101604052809291908181526020016000905b8282101561116557838290600052602060002090600302016040518060600160405290816000820180546110af906127a7565b80601f01602080910402602001604051908101604052809291908181526020018280546110db906127a7565b80156111285780601f106110fd57610100808354040283529160200191611128565b820191906000526020600020905b81548152906001019060200180831161110b57829003601f168201915b50505050508152602001600182015481526020016002820160009054906101000a900460ff1615151515815250508152602001906001019061107c565b505050509050919050565b60008160ff16116111b6576040517f08c379a00000000000000000000000000000000000000000000000000000000081526004016111ad906123e3565b60405180910390fd5b6000600360008460ff1660ff16815260200190815260200160002060020154905060008114156111e65760015490505b8160ff16816111f59190612656565b341015611237576040517f08c379a000000000000000000000000000000000000000000000000000000000815260040161122e90612363565b60405180910390fd5b60008054906101000a900460ff1660ff168360ff161061128c576040517f08c379a0000000000000000000000000000000000000000000000000000000008152600401611283906123a3565b60405180910390fd5b600360008460ff1660ff1681526020019081526020016000206001015442111561138d57600060018111156112ea577f4e487b7100000000000000000000000000000000000000000000000000000000600052602160045260246000fd5b600360008560ff1660ff16815260200190815260200160002060000160009054906101000a900460ff16600181111561134c577f4e487b7100000000000000000000000000000000000000000000000000000000600052602160045260246000fd5b1461138c576040517f08c379a000000000000000000000000000000000000000000000000000000000815260040161138390612443565b60405180910390fd5b5b6001600360008560ff1660ff16815260200190815260200160002060000160006101000a81548160ff021916908360018111156113f3577f4e487b7100000000000000000000000000000000000000000000000000000000600052602160045260246000fd5b021790555033600360008560ff1660ff16815260200190815260200160002060000160016101000a81548173ffffffffffffffffffffffffffffffffffffffff021916908373ffffffffffffffffffffffffffffffffffffffff160217905550600082600161146291906126b0565b60ff16426114709190612600565b905080600360008660ff1660ff16815260200190815260200160002060010181905550600360008560ff1660ff16815260200190815260200160002060030160006114bb9190611a3c565b6114c3611a60565b6040518060400160405280600481526020017f7374617900000000000000000000000000000000000000000000000000000000815250816000018190525034816020018181525050600360008660ff1660ff168152602001908152602001600020600301819080600181540180825580915050600190039060005260206000209060030201600090919091909150600082015181600001908051906020019061156d929190611929565b506020820151816001015560408201518160020160006101000a81548160ff02191690831515021790555050505050505050565b600042905090565b600260009054906101000a900473ffffffffffffffffffffffffffffffffffffffff1673ffffffffffffffffffffffffffffffffffffffff163373ffffffffffffffffffffffffffffffffffffffff1614611639576040517f08c379a000000000000000000000000000000000000000000000000000000000815260040161163090612483565b60405180910390fd5b8160008054906101000a900460ff1660ff168160ff161061168f576040517f08c379a0000000000000000000000000000000000000000000000000000000008152600401611686906123a3565b60405180910390fd5b600360008260ff1660ff1681526020019081526020016000206001015442111561179057600060018111156116ed577f4e487b7100000000000000000000000000000000000000000000000000000000600052602160045260246000fd5b600360008360ff1660ff16815260200190815260200160002060000160009054906101000a900460ff16600181111561174f577f4e487b7100000000000000000000000000000000000000000000000000000000600052602160045260246000fd5b1461178f576040517f08c379a000000000000000000000000000000000000000000000000000000000815260040161178690612443565b60405180910390fd5b5b81600360008560ff1660ff16815260200190815260200160002060020181905550505050565b600260009054906101000a900473ffffffffffffffffffffffffffffffffffffffff1673ffffffffffffffffffffffffffffffffffffffff163373ffffffffffffffffffffffffffffffffffffffff1614611846576040517f08c379a000000000000000000000000000000000000000000000000000000000815260040161183d90612483565b60405180910390fd5b600460009054906101000a900460ff1660ff168460ff161061189d576040517f08c379a000000000000000000000000000000000000000000000000000000000815260040161189490612423565b60405180910390fd5b82600560008660ff1660ff16815260200190815260200160002060000190805190602001906118cd929190611929565b5081600560008660ff1660ff1681526020019081526020016000206001018190555080600560008660ff1660ff16815260200190815260200160002060020160006101000a81548160ff02191690831515021790555050505050565b828054611935906127a7565b90600052602060002090601f016020900481019282611957576000855561199e565b82601f1061197057805160ff191683800117855561199e565b8280016001018555821561199e579182015b8281111561199d578251825591602001919060010190611982565b5b5090506119ab9190611a83565b5090565b8280546119bb906127a7565b90600052602060002090601f0160209004810192826119dd5760008555611a2b565b82601f106119ee5780548555611a2b565b82800160010185558215611a2b57600052602060002091601f016020900482015b82811115611a2a578254825591600101919060010190611a0f565b5b509050611a389190611a83565b5090565b5080546000825560030290600052602060002090810190611a5d9190611aa0565b50565b604051806060016040528060608152602001600081526020016000151581525090565b5b80821115611a9c576000816000905550600101611a84565b5090565b5b80821115611adf5760008082016000611aba9190611ae3565b60018201600090556002820160006101000a81549060ff021916905550600301611aa1565b5090565b508054611aef906127a7565b6000825580601f10611b015750611b20565b601f016020900490600052602060002090810190611b1f9190611a83565b5b50565b6000611b36611b318461256a565b612539565b905082815260208101848484011115611b4e57600080fd5b611b59848285612765565b509392505050565b600081359050611b70816128e4565b92915050565b600082601f830112611b8757600080fd5b8135611b97848260208601611b23565b91505092915050565b600081359050611baf816128fb565b92915050565b600081359050611bc481612912565b92915050565b60008060408385031215611bdd57600080fd5b600083013567ffffffffffffffff811115611bf757600080fd5b611c0385828601611b76565b9250506020611c1485828601611ba0565b9150509250929050565b600060208284031215611c3057600080fd5b6000611c3e84828501611ba0565b91505092915050565b600060208284031215611c5957600080fd5b6000611c6784828501611bb5565b91505092915050565b60008060008060808587031215611c8657600080fd5b6000611c9487828801611bb5565b945050602085013567ffffffffffffffff811115611cb157600080fd5b611cbd87828801611b76565b9350506040611cce87828801611ba0565b9250506060611cdf87828801611b61565b91505092959194509250565b60008060408385031215611cfe57600080fd5b6000611d0c85828601611bb5565b9250506020611d1d85828601611ba0565b9150509250929050565b60008060408385031215611d3a57600080fd5b6000611d4885828601611bb5565b9250506020611d5985828601611bb5565b9150509250929050565b6000611d6f8383612226565b905092915050565b611d80816126eb565b82525050565b6000611d91826125aa565b611d9b81856125cd565b935083602082028501611dad8561259a565b8060005b85811015611de95784840389528151611dca8582611d63565b9450611dd5836125c0565b925060208a01995050600181019050611db1565b50829750879550505050505092915050565b611e04816126fd565b82525050565b611e13816126fd565b82525050565b611e2281612753565b82525050565b6000611e33826125b5565b611e3d81856125de565b9350611e4d818560208601612774565b611e56816128bf565b840191505092915050565b6000611e6c826125b5565b611e7681856125ef565b9350611e86818560208601612774565b611e8f816128bf565b840191505092915050565b6000611ea76010836125ef565b91507f4e6f7420656e6f756768206d6f6e6579000000000000000000000000000000006000830152602082019050919050565b6000611ee76017836125ef565b91507f796f7520617265206e6f7420696e2074686520726f6f6d0000000000000000006000830152602082019050919050565b6000611f276019836125ef565b91507f5468697320726f6f6d20646f6573206e6f7420657869737473000000000000006000830152602082019050919050565b6000611f67601b836125ef565b91507f4d6f6e657920646f65736e27742067726f77206f6e20747265657300000000006000830152602082019050919050565b6000611fa76024836125ef565b91507f596f75206861766520746f2073746179206174206c65617374206f6e6520706560008301527f72696f64000000000000000000000000000000000000000000000000000000006020830152604082019050919050565b600061200d6028836125ef565b91507f596f75722074696d65206973206f7665722c20706c65617365206c656176652060008301527f74686520726f6f6d0000000000000000000000000000000000000000000000006020830152604082019050919050565b6000612073601c836125ef565b91507f54686973207365727669636520646f6573206e6f7420657869737473000000006000830152602082019050919050565b60006120b36015836125ef565b91507f5468697320726f6f6d206973206f6363757069656400000000000000000000006000830152602082019050919050565b60006120f36019836125ef565b91507f5468697320726f6f6d206973206e6f74206f63637570696564000000000000006000830152602082019050919050565b60006121336009836125ef565b91507f4e6f74206f776e657200000000000000000000000000000000000000000000006000830152602082019050919050565b6000612173601b836125ef565b91507f54686973207365727669636520697320756e617661696c61626c6500000000006000830152602082019050919050565b60006121b36013836125ef565b91507f49276d2062726f6b652c20736f7272792e2e2e000000000000000000000000006000830152602082019050919050565b60006121f36019836125ef565b91507f54686973206974656d20646f6573206e6f7420657869737473000000000000006000830152602082019050919050565b600060608301600083015184820360008601526122438282611e28565b91505060208301516122586020860182612276565b50604083015161226b6040860182611dfb565b508091505092915050565b61227f8161273c565b82525050565b61228e8161273c565b82525050565b61229d81612746565b82525050565b60006020820190506122b86000830184611d77565b92915050565b600060208201905081810360008301526122d88184611d86565b905092915050565b60006080820190506122f56000830187611e19565b6123026020830186611d77565b61230f6040830185612285565b61231c6060830184612285565b95945050505050565b6000606082019050818103600083015261233f8186611e61565b905061234e6020830185612285565b61235b6040830184611e0a565b949350505050565b6000602082019050818103600083015261237c81611e9a565b9050919050565b6000602082019050818103600083015261239c81611eda565b9050919050565b600060208201905081810360008301526123bc81611f1a565b9050919050565b600060208201905081810360008301526123dc81611f5a565b9050919050565b600060208201905081810360008301526123fc81611f9a565b9050919050565b6000602082019050818103600083015261241c81612000565b9050919050565b6000602082019050818103600083015261243c81612066565b9050919050565b6000602082019050818103600083015261245c816120a6565b9050919050565b6000602082019050818103600083015261247c816120e6565b9050919050565b6000602082019050818103600083015261249c81612126565b9050919050565b600060208201905081810360008301526124bc81612166565b9050919050565b600060208201905081810360008301526124dc816121a6565b9050919050565b600060208201905081810360008301526124fc816121e6565b9050919050565b60006020820190506125186000830184612285565b92915050565b60006020820190506125336000830184612294565b92915050565b6000604051905081810181811067ffffffffffffffff821117156125605761255f612890565b5b8060405250919050565b600067ffffffffffffffff82111561258557612584612890565b5b601f19601f8301169050602081019050919050565b6000819050602082019050919050565b600081519050919050565b600081519050919050565b6000602082019050919050565b600082825260208201905092915050565b600082825260208201905092915050565b600082825260208201905092915050565b600061260b8261273c565b91506126168361273c565b9250827fffffffffffffffffffffffffffffffffffffffffffffffffffffffffffffffff0382111561264b5761264a612803565b5b828201905092915050565b60006126618261273c565b915061266c8361273c565b9250817fffffffffffffffffffffffffffffffffffffffffffffffffffffffffffffffff04831182151516156126a5576126a4612803565b5b828202905092915050565b60006126bb82612746565b91506126c683612746565b92508160ff04831182151516156126e0576126df612803565b5b828202905092915050565b60006126f68261271c565b9050919050565b60008115159050919050565b6000819050612717826128d0565b919050565b600073ffffffffffffffffffffffffffffffffffffffff82169050919050565b6000819050919050565b600060ff82169050919050565b600061275e82612709565b9050919050565b82818337600083830152505050565b60005b83811015612792578082015181840152602081019050612777565b838111156127a1576000848401525b50505050565b600060028204905060018216806127bf57607f821691505b602082108114156127d3576127d2612861565b5b50919050565b60006127e482612746565b915060ff8214156127f8576127f7612803565b5b600182019050919050565b7f4e487b7100000000000000000000000000000000000000000000000000000000600052601160045260246000fd5b7f4e487b7100000000000000000000000000000000000000000000000000000000600052602160045260246000fd5b7f4e487b7100000000000000000000000000000000000000000000000000000000600052602260045260246000fd5b7f4e487b7100000000000000000000000000000000000000000000000000000000600052604160045260246000fd5b6000601f19601f8301169050919050565b600281106128e1576128e0612832565b5b50565b6128ed816126fd565b81146128f857600080fd5b50565b6129048161273c565b811461290f57600080fd5b50565b61291b81612746565b811461292657600080fd5b5056fea2646970667358221220d51b01be0e350087b7f6dc1058b243989706db08b87660165c570981de3847fa64736f6c63430008000033",
  "devdoc": {
    "author": "ricardo85x",
    "details": "allow users to rent a room in the dApp Inn. ",
    "kind": "dev",
    "methods": {
      "addRoomService(string,uint256)": {
        "details": "add a service so guest can buy it."
      },
      "balance()": {
        "returns": {
          "_0": "the balance in this smart contract."
        }
      },
      "checkOut(uint8)": {
        "details": "no money back!"
      },
      "constructor": {
        "details": "consider using openzeppelin Owener contract"
      },
      "getRoomTab(uint8)": {
        "details": "I could not directly use rooms[num].tab from etherjs So I created this function.",
        "returns": {
          "_0": "rooms'tab."
        }
      },
      "getTimeStamp()": {
        "returns": {
          "_0": "current timestamp."
        }
      },
      "setNumberOfRooms(uint8)": {
        "details": "please verifify manualy if the room is empty before continue."
      },
      "setRoomPrice(uint8,uint256)": {
        "details": "set price to zero when you want to use defaultRoomPriceInWei."
      },
      "updateRoomService(uint8,string,uint256,bool)": {
        "details": "update a service."
      }
    },
    "title": "Dapp Inn ",
    "version": 1
  },
  "userdoc": {
    "kind": "user",
    "methods": {
      "buyRoomService(uint8,uint8)": {
        "notice": "buy a service to make your stay more happy."
      },
      "checkIn(uint8,uint8)": {
        "notice": "check in the room."
      },
      "checkOut(uint8)": {
        "notice": "checkout the user before the checkoutDate."
      },
      "setDefaultRoomPrice(uint256)": {
        "notice": "set the defaut room price."
      },
      "setNumberOfRooms(uint8)": {
        "notice": "set the number of rooms available to rent."
      },
      "setRoomPrice(uint8,uint256)": {
        "notice": "set Rooms price."
      },
      "withdrawAll()": {
        "notice": "withdraw all funds."
      }
    },
    "version": 1
  },
  "storageLayout": {
    "storage": [
      {
        "astId": 8,
        "contract": "contracts/DappInn.sol:DappInn",
        "label": "numberOfRooms",
        "offset": 0,
        "slot": "0",
        "type": "t_uint8"
      },
      {
        "astId": 11,
        "contract": "contracts/DappInn.sol:DappInn",
        "label": "defaultRoomPriceInWei",
        "offset": 0,
        "slot": "1",
        "type": "t_uint256"
      },
      {
        "astId": 13,
        "contract": "contracts/DappInn.sol:DappInn",
        "label": "owner",
        "offset": 0,
        "slot": "2",
        "type": "t_address"
      },
      {
        "astId": 32,
        "contract": "contracts/DappInn.sol:DappInn",
        "label": "rooms",
        "offset": 0,
        "slot": "3",
        "type": "t_mapping(t_uint8,t_struct(Room)27_storage)"
      },
      {
        "astId": 41,
        "contract": "contracts/DappInn.sol:DappInn",
        "label": "numberOfServices",
        "offset": 0,
        "slot": "4",
        "type": "t_uint8"
      },
      {
        "astId": 46,
        "contract": "contracts/DappInn.sol:DappInn",
        "label": "roomService",
        "offset": 0,
        "slot": "5",
        "type": "t_mapping(t_uint8,t_struct(RoomService)39_storage)"
      }
    ],
    "types": {
      "t_address": {
        "encoding": "inplace",
        "label": "address",
        "numberOfBytes": "20"
      },
      "t_array(t_struct(RoomService)39_storage)dyn_storage": {
        "base": "t_struct(RoomService)39_storage",
        "encoding": "dynamic_array",
        "label": "struct DappInn.RoomService[]",
        "numberOfBytes": "32"
      },
      "t_bool": {
        "encoding": "inplace",
        "label": "bool",
        "numberOfBytes": "1"
      },
      "t_enum(RoomStatus)5": {
        "encoding": "inplace",
        "label": "enum DappInn.RoomStatus",
        "numberOfBytes": "1"
      },
      "t_mapping(t_uint8,t_struct(Room)27_storage)": {
        "encoding": "mapping",
        "key": "t_uint8",
        "label": "mapping(uint8 => struct DappInn.Room)",
        "numberOfBytes": "32",
        "value": "t_struct(Room)27_storage"
      },
      "t_mapping(t_uint8,t_struct(RoomService)39_storage)": {
        "encoding": "mapping",
        "key": "t_uint8",
        "label": "mapping(uint8 => struct DappInn.RoomService)",
        "numberOfBytes": "32",
        "value": "t_struct(RoomService)39_storage"
      },
      "t_string_storage": {
        "encoding": "bytes",
        "label": "string",
        "numberOfBytes": "32"
      },
      "t_struct(Room)27_storage": {
        "encoding": "inplace",
        "label": "struct DappInn.Room",
        "members": [
          {
            "astId": 16,
            "contract": "contracts/DappInn.sol:DappInn",
            "label": "status",
            "offset": 0,
            "slot": "0",
            "type": "t_enum(RoomStatus)5"
          },
          {
            "astId": 18,
            "contract": "contracts/DappInn.sol:DappInn",
            "label": "guest",
            "offset": 1,
            "slot": "0",
            "type": "t_address"
          },
          {
            "astId": 20,
            "contract": "contracts/DappInn.sol:DappInn",
            "label": "checkoutDate",
            "offset": 0,
            "slot": "1",
            "type": "t_uint256"
          },
          {
            "astId": 22,
            "contract": "contracts/DappInn.sol:DappInn",
            "label": "price",
            "offset": 0,
            "slot": "2",
            "type": "t_uint256"
          },
          {
            "astId": 26,
            "contract": "contracts/DappInn.sol:DappInn",
            "label": "tab",
            "offset": 0,
            "slot": "3",
            "type": "t_array(t_struct(RoomService)39_storage)dyn_storage"
          }
        ],
        "numberOfBytes": "128"
      },
      "t_struct(RoomService)39_storage": {
        "encoding": "inplace",
        "label": "struct DappInn.RoomService",
        "members": [
          {
            "astId": 34,
            "contract": "contracts/DappInn.sol:DappInn",
            "label": "name",
            "offset": 0,
            "slot": "0",
            "type": "t_string_storage"
          },
          {
            "astId": 36,
            "contract": "contracts/DappInn.sol:DappInn",
            "label": "price",
            "offset": 0,
            "slot": "1",
            "type": "t_uint256"
          },
          {
            "astId": 38,
            "contract": "contracts/DappInn.sol:DappInn",
            "label": "enabled",
            "offset": 0,
            "slot": "2",
            "type": "t_bool"
          }
        ],
        "numberOfBytes": "96"
      },
      "t_uint256": {
        "encoding": "inplace",
        "label": "uint256",
        "numberOfBytes": "32"
      },
      "t_uint8": {
        "encoding": "inplace",
        "label": "uint8",
        "numberOfBytes": "1"
      }
    }
  }
}